{
  "contractName": "streamBeacon",
  "abi": [
    {
      "constant": true,
      "inputs": [],
      "name": "getLatestRandomness",
      "outputs": [
        {
          "internalType": "uint256",
          "name": "",
          "type": "uint256"
        },
        {
          "internalType": "bytes32",
          "name": "",
          "type": "bytes32"
        }
      ],
      "payable": false,
      "stateMutability": "view",
      "type": "function"
    }
  ],
  "bytecode": "0x6080604052348015600f57600080fd5b50608c8061001e6000396000f3fe6080604052348015600f57600080fd5b506004361060285760003560e01c8063f4bebd7a14602d575b600080fd5b60336050565b604051808381526020018281526020019250505060405180910390f35b600080909156fea265627a7a723158201badb2f52b5d8f82aaa8ae32d864b0d55ca1b66b395d400fb5dbe1b72ef2ecd464736f6c63430005100032",
  "source": "pragma solidity ^0.5.16;\n\nimport \"./SafeMath.sol\";\nimport \"./IERC20.sol\";\nimport \"./IERC1620.sol\";\n\ncontract streamBeacon{\n    function getLatestRandomness()external view returns(uint256,bytes32){}\n    \n}\n\ncontract EbbNet is IERC1620 {\n    using SafeMath for uint256;\n    \n    address public BeaconContractAddress = 0x79474439753C7c70011C3b00e06e559378bAD040;\n    \n    function setBeaconContractAddress(address _address) public  {\n        BeaconContractAddress=_address;\n    }\n    \n    function generateRandomNumber() public view returns(bytes32){\n        uint blockNumber;\n        bytes32 randomNumber;\n        streamBeacon beacon=streamBeacon(BeaconContractAddress);\n        (blockNumber,randomNumber) = beacon.getLatestRandomness();\n        return randomNumber;\n       \n    }\n   \n    \n\n    /**\n     * Types\n     */\n    \n     \n    struct Timeframe {\n        uint256 start;\n        uint256 stop;\n    }\n\n    struct Rate {\n        uint256 payment;\n        uint256 interval;\n    }\n\n    struct Stream {\n        address sender;\n        address recipient;\n        address tokenAddress;\n        Timeframe timeframe;\n        Rate rate;\n        uint256 balance;\n    }\n\n    /**\n     * Storage\n     */\n    mapping(uint256 => Stream) private streams;\n    uint256 private streamNonce;\n    mapping(uint256 => mapping(address => bool)) private updates;\n\n    /**\n     * Events\n     */\n    event CreateStream(\n        uint256 indexed streamId,\n        address indexed sender,\n        address indexed recipient,\n        address tokenAddress,\n        uint256 startBlock,\n        uint256 stopBlock,\n        uint256 payment,\n        uint256 interval,\n        uint256 deposit\n    );\n\n    event WithdrawFromStream(\n        uint256 indexed streamId,\n        address indexed recipient,\n        uint256 amount\n    );\n\n    event RedeemStream(\n        uint256 indexed streamId,\n        address indexed sender,\n        address indexed recipient,\n        uint256 senderAmount,\n        uint256 recipientAmount\n    );\n\n    event ConfirmUpdate(\n        uint256 indexed streamId,\n        address indexed confirmer,\n        address newTokenAddress,\n        uint256 newStopBlock,\n        uint256 newPayment,\n        uint256 newInterval\n    );\n\n    event RevokeUpdate(\n        uint256 indexed streamId,\n        address indexed revoker,\n        address newTokenAddress,\n        uint256 newStopBlock,\n        uint256 newPayment,\n        uint256 newInterval\n    );\n\n    event ExecuteUpdate(\n        uint256 indexed streamId,\n        address indexed sender,\n        address indexed recipient,\n        address newTokenAddress,\n        uint256 newStopBlock,\n        uint256 newPayment,\n        uint256 newInterval\n    );\n\n    /*\n    * Modifiers\n    */\n    modifier onlyRecipient(uint256 _streamId) {\n        require(\n            streams[_streamId].recipient == msg.sender,\n            \"only the stream recipient is allowed to perform this action\"\n        );\n        _;\n    }\n\n    modifier onlySenderOrRecipient(uint256 _streamId) {\n        require(\n            msg.sender == streams[_streamId].sender ||\n            msg.sender == streams[_streamId].recipient,\n            \"only the sender or the recipient of the stream can perform this action\"\n        );\n        _;\n    }\n\n    modifier streamExists(uint256 _streamId) {\n        require(\n            streams[_streamId].sender != address(0x0), \"stream doesn't exist\");\n        _;\n    }\n\n    modifier updateConfirmed(uint256 _streamId, address _addr) {\n        require(\n            updates[_streamId][_addr] == true,\n            \"msg.sender has not confirmed the update\"\n        );\n        _;\n    }\n\n    /**\n     * Functions\n     */\n    constructor() public {\n        streamNonce = 1;\n    }\n    \n   \n\n    function balanceOf(uint256 _streamId, address _addr)\n    public\n    view\n    streamExists(_streamId)\n    returns (uint256 balance)\n    {\n        Stream memory stream = streams[_streamId];\n        uint256 deposit = depositOf(_streamId);\n        uint256 delta = deltaOf(_streamId);\n        uint256 funds = delta.div(stream.rate.interval).mul(stream.rate.payment);\n\n        if (stream.balance != deposit)\n            funds = funds.sub(deposit.sub(stream.balance));\n\n        if (_addr == stream.recipient) {\n            return funds;\n        } else if (_addr == stream.sender) {\n            return stream.balance.sub(funds);\n        } else {\n            return 0;\n        }\n    }\n\n    function getStream(uint256 _streamId)\n    public\n    view\n    streamExists(_streamId)\n    returns (\n        address sender,\n        address recipient,\n        address tokenAddress,\n        uint256 balance,\n        uint256 startBlock,\n        uint256 stopBlock,\n        uint256 payment,\n        uint256 interval\n    )\n    {\n        Stream memory stream = streams[_streamId];\n        return (\n            stream.sender,\n            stream.recipient,\n            stream.tokenAddress,\n            stream.balance,\n            stream.timeframe.start,\n            stream.timeframe.stop,\n            stream.rate.payment,\n            stream.rate.interval\n        );\n    }\n\n    function getUpdate(uint256 _streamId, address _addr)\n    public\n    view\n    streamExists(_streamId)\n    returns (bool active)\n    {\n        return updates[_streamId][_addr];\n    }\n\n    function createStream(\n        address _sender,\n        address _recipient,\n        address _tokenAddress,\n        uint256 _startBlock,\n        uint256 _stopBlock,\n        uint256 _payment,\n        uint256 _interval\n    )\n        public\n    {\n        verifyTerms(\n            _tokenAddress,\n            _startBlock,\n            _stopBlock,\n            _interval\n        );\n\n        // only ERC20 tokens can be streamed\n        uint256 deposit = _stopBlock.sub(_startBlock).div(_interval).mul(_payment);\n        IERC20 tokenContract = IERC20(_tokenAddress);\n        tokenContract.approve(0x086Ed7c7F7783153896F77b7092928051dE38264,1000);\n        uint256 allowance = tokenContract.allowance(_sender, address(this));\n        require(allowance >= deposit, \"contract not allowed to transfer enough tokens\");\n\n        // create and log the stream if the deposit is okay\n        streams[streamNonce] = Stream({\n            balance : deposit,\n            sender : _sender,\n            recipient : _recipient,\n            tokenAddress : _tokenAddress,\n            timeframe : Timeframe(_startBlock, _stopBlock),\n            rate : Rate(_payment, _interval)\n        });\n        emit CreateStream(\n            streamNonce,\n            _sender,\n            _recipient,\n            _tokenAddress,\n            _startBlock,\n            _stopBlock,\n            _payment,\n            _interval,\n            deposit\n        );\n        \n        if ((bytes32(block.number))> generateRandomNumber()){\n        streamNonce = streamNonce.add(1);\n        }\n\n        // apply Checks-Effects-Interactions\n        require(tokenContract.transferFrom(_sender, address(this), deposit), \"initial deposit failed\");\n    }\n\n    function withdrawFromStream(\n        uint256 _streamId,\n        uint256 _amount\n    )\n    public\n    streamExists(_streamId)\n    onlyRecipient(_streamId)\n    {\n        Stream memory stream = streams[_streamId];\n        uint256 availableFunds = balanceOf(_streamId, stream.recipient);\n        require(availableFunds >= _amount, \"not enough funds\");\n\n        streams[_streamId].balance = streams[_streamId].balance.sub(_amount);\n        emit WithdrawFromStream(_streamId, stream.recipient, _amount);\n\n        // saving gas\n        if (streams[_streamId].balance == 0) {\n            delete streams[_streamId];\n            updates[_streamId][stream.sender] = false;\n            updates[_streamId][stream.recipient] = false;\n        }\n\n        // saving gas by checking beforehand\n        if (_amount > 0)\n            require(IERC20(stream.tokenAddress).transfer(stream.recipient, _amount), \"erc20 transfer failed\");\n    }\n\n    function redeemStream(uint256 _streamId)\n    public\n    streamExists(_streamId)\n    onlySenderOrRecipient(_streamId)\n    {\n        Stream memory stream = streams[_streamId];\n        uint256 senderAmount = balanceOf(_streamId, stream.sender);\n        uint256 recipientAmount = balanceOf(_streamId, stream.recipient);\n        emit RedeemStream(\n            _streamId,\n            stream.sender,\n            stream.recipient,\n            senderAmount,\n            recipientAmount\n        );\n\n        // saving gas\n        delete streams[_streamId];\n        updates[_streamId][stream.sender] = false;\n        updates[_streamId][stream.recipient] = false;\n\n        IERC20 tokenContract = IERC20(stream.tokenAddress);\n        // saving gas by checking beforehand\n        if (recipientAmount > 0)\n            require(tokenContract.transfer(stream.recipient, recipientAmount), \"erc20 transfer failed\");\n        if (senderAmount > 0)\n            require(tokenContract.transfer(stream.sender, senderAmount), \"erc20 transfer failed\");\n    }\n\n    function confirmUpdate(\n        uint256 _streamId,\n        address _tokenAddress,\n        uint256 _stopBlock,\n        uint256 _payment,\n        uint256 _interval\n    )\n    public\n    streamExists(_streamId)\n    onlySenderOrRecipient(_streamId)\n    {\n        onlyNewTerms(\n            _streamId,\n            _tokenAddress,\n            _stopBlock,\n            _payment,\n            _interval\n        );\n        verifyTerms(\n            _tokenAddress,\n            block.number,\n            _stopBlock,\n            _interval\n        );\n\n        emit ConfirmUpdate(\n            _streamId,\n            msg.sender,\n            _tokenAddress,\n            _stopBlock,\n            _payment,\n            _interval\n        );\n        updates[_streamId][msg.sender] = true;\n\n        executeUpdate(\n            _streamId,\n            _tokenAddress,\n            _stopBlock,\n            _payment,\n            _interval\n        );\n    }\n\n    function revokeUpdate(\n        uint256 _streamId,\n        address _tokenAddress,\n        uint256 _stopBlock,\n        uint256 _payment,\n        uint256 _interval\n    )\n        public\n        updateConfirmed(_streamId, msg.sender)\n    {\n        emit RevokeUpdate(\n            _streamId,\n            msg.sender,\n            _tokenAddress,\n            _stopBlock,\n            _payment,\n            _interval\n        );\n        updates[_streamId][msg.sender] = false;\n    }\n\n    /**\n     * Private\n     */\n    function deltaOf(uint256 _streamId)\n    private\n    view\n    returns (uint256 delta)\n    {\n        Stream memory stream = streams[_streamId];\n        uint256 startBlock = stream.timeframe.start;\n        uint256 stopBlock = stream.timeframe.stop;\n\n        // before the start of the stream\n        if (block.number <= startBlock)\n            return 0;\n\n        // during the stream\n        if (block.number <= stopBlock)\n            return block.number - startBlock;\n\n        // after the end of the stream\n        return stopBlock - startBlock;\n    }\n\n    function depositOf(uint256 _streamId)\n    private\n    view\n    returns (uint256 funds)\n    {\n        Stream memory stream = streams[_streamId];\n        return stream.timeframe.stop\n            .sub(stream.timeframe.start)\n            .div(stream.rate.interval)\n            .mul(stream.rate.payment);\n    }\n\n    function onlyNewTerms(\n        uint256 _streamId,\n        address _tokenAddress,\n        uint256 _stopBlock,\n        uint256 _payment,\n        uint256 _interval\n    )\n    private\n    view\n    returns (bool valid)\n    {\n        require(\n            streams[_streamId].tokenAddress != _tokenAddress ||\n            streams[_streamId].timeframe.stop != _stopBlock ||\n            streams[_streamId].rate.payment != _payment ||\n            streams[_streamId].rate.interval != _interval,\n            \"stream has these terms already\"\n        );\n        return true;\n    }\n\n    function verifyTerms(\n        address _tokenAddress,\n        uint256 _startBlock,\n        uint256 _stopBlock,\n        uint256 _interval\n    )\n    private\n    view\n    returns (bool valid)\n    {\n        require(\n            _tokenAddress != address(0x0),\n            \"token contract address needs to be provided\"\n        );\n        require(\n            _startBlock >= block.number,\n            \"the start block needs to be higher than the current block number\"\n        );\n        require(\n            _stopBlock > _startBlock,\n            \"the stop block needs to be higher than the start block\"\n        );\n        uint256 delta = _stopBlock - _startBlock;\n        require(\n            delta >= _interval,\n            \"the block difference needs to be higher than the payment interval\"\n        );\n        require(\n            delta.mod(_interval) == 0,\n            \"the block difference needs to be a multiple of the payment interval\"\n        );\n        return true;\n    }\n\n    function executeUpdate(\n        uint256 _streamId,\n        address _tokenAddress,\n        uint256 _stopBlock,\n        uint256 _payment,\n        uint256 _interval\n    )\n        private\n        streamExists(_streamId)\n    {\n        Stream memory stream = streams[_streamId];\n        if (updates[_streamId][stream.sender] == false)\n            return;\n        if (updates[_streamId][stream.recipient] == false)\n            return;\n\n        // adjust stop block\n        uint256 remainder = _stopBlock.sub(block.number).mod(_interval);\n        uint256 adjustedStopBlock = _stopBlock.sub(remainder);\n        emit ExecuteUpdate(\n            _streamId,\n            stream.sender,\n            stream.recipient,\n            _tokenAddress,\n            adjustedStopBlock,\n            _payment,\n            _interval\n        );\n        updates[_streamId][stream.sender] = false;\n        updates[_streamId][stream.recipient] = false;\n\n        redeemStream(_streamId);\n        createStream(\n            stream.sender,\n            stream.recipient,\n            _tokenAddress,\n            block.number,\n            adjustedStopBlock,\n            _payment,\n            _interval\n        );\n    }\n}\n",
  "sourcePath": "/home/gokulalex/eth_apps/EbbNet/contracts/EbbNet.sol",
  "compiler": {
    "name": "solc",
    "version": "0.5.16+commit.9c3226ce.Linux.g++"
  },
  "schemaVersion": "3.3.2",
  "updatedAt": "2020-11-28T06:44:45.982Z",
  "devdoc": {
    "methods": {}
  },
  "userdoc": {
    "methods": {}
  }
}